{
  "contractName": "TenderAuction",
  "abi": [
    {
      "constant": true,
      "inputs": [],
      "name": "bidCount",
      "outputs": [
        {
          "internalType": "uint256",
          "name": "",
          "type": "uint256"
        }
      ],
      "payable": false,
      "stateMutability": "view",
      "type": "function"
    },
    {
      "constant": true,
      "inputs": [],
      "name": "bidderCount",
      "outputs": [
        {
          "internalType": "uint256",
          "name": "",
          "type": "uint256"
        }
      ],
      "payable": false,
      "stateMutability": "view",
      "type": "function"
    },
    {
      "constant": true,
      "inputs": [
        {
          "internalType": "address",
          "name": "",
          "type": "address"
        }
      ],
      "name": "bidders",
      "outputs": [
        {
          "internalType": "uint256",
          "name": "id",
          "type": "uint256"
        },
        {
          "internalType": "string",
          "name": "username",
          "type": "string"
        }
      ],
      "payable": false,
      "stateMutability": "view",
      "type": "function"
    },
    {
      "constant": true,
      "inputs": [
        {
          "internalType": "uint256",
          "name": "",
          "type": "uint256"
        }
      ],
      "name": "bids",
      "outputs": [
        {
          "internalType": "uint256",
          "name": "id",
          "type": "uint256"
        },
        {
          "internalType": "uint256",
          "name": "tenderId",
          "type": "uint256"
        },
        {
          "internalType": "string",
          "name": "tenderTitle",
          "type": "string"
        },
        {
          "internalType": "uint256",
          "name": "bid",
          "type": "uint256"
        },
        {
          "internalType": "address",
          "name": "userHash",
          "type": "address"
        }
      ],
      "payable": false,
      "stateMutability": "view",
      "type": "function"
    },
    {
      "constant": true,
      "inputs": [],
      "name": "tenderCount",
      "outputs": [
        {
          "internalType": "uint256",
          "name": "",
          "type": "uint256"
        }
      ],
      "payable": false,
      "stateMutability": "view",
      "type": "function"
    },
    {
      "constant": true,
      "inputs": [
        {
          "internalType": "uint256",
          "name": "",
          "type": "uint256"
        }
      ],
      "name": "tenders",
      "outputs": [
        {
          "internalType": "uint256",
          "name": "id",
          "type": "uint256"
        },
        {
          "internalType": "string",
          "name": "itemName",
          "type": "string"
        },
        {
          "internalType": "string",
          "name": "itemDescription",
          "type": "string"
        },
        {
          "internalType": "uint256",
          "name": "quantity",
          "type": "uint256"
        },
        {
          "internalType": "address",
          "name": "userHash",
          "type": "address"
        }
      ],
      "payable": false,
      "stateMutability": "view",
      "type": "function"
    },
    {
      "constant": true,
      "inputs": [],
      "name": "uploaderCount",
      "outputs": [
        {
          "internalType": "uint256",
          "name": "",
          "type": "uint256"
        }
      ],
      "payable": false,
      "stateMutability": "view",
      "type": "function"
    },
    {
      "constant": true,
      "inputs": [
        {
          "internalType": "address",
          "name": "",
          "type": "address"
        }
      ],
      "name": "uploaders",
      "outputs": [
        {
          "internalType": "uint256",
          "name": "id",
          "type": "uint256"
        },
        {
          "internalType": "string",
          "name": "username",
          "type": "string"
        }
      ],
      "payable": false,
      "stateMutability": "view",
      "type": "function"
    },
    {
      "constant": true,
      "inputs": [
        {
          "internalType": "uint256",
          "name": "",
          "type": "uint256"
        }
      ],
      "name": "whoIsBidder",
      "outputs": [
        {
          "internalType": "address",
          "name": "",
          "type": "address"
        }
      ],
      "payable": false,
      "stateMutability": "view",
      "type": "function"
    },
    {
      "constant": true,
      "inputs": [
        {
          "internalType": "uint256",
          "name": "",
          "type": "uint256"
        }
      ],
      "name": "whoIsUploader",
      "outputs": [
        {
          "internalType": "address",
          "name": "",
          "type": "address"
        }
      ],
      "payable": false,
      "stateMutability": "view",
      "type": "function"
    },
    {
      "constant": false,
      "inputs": [
        {
          "internalType": "string",
          "name": "_username",
          "type": "string"
        }
      ],
      "name": "createUploader",
      "outputs": [],
      "payable": false,
      "stateMutability": "nonpayable",
      "type": "function"
    },
    {
      "constant": false,
      "inputs": [
        {
          "internalType": "string",
          "name": "_username",
          "type": "string"
        }
      ],
      "name": "createBidder",
      "outputs": [],
      "payable": false,
      "stateMutability": "nonpayable",
      "type": "function"
    },
    {
      "constant": false,
      "inputs": [
        {
          "internalType": "string",
          "name": "_itemName",
          "type": "string"
        },
        {
          "internalType": "string",
          "name": "_itemDescription",
          "type": "string"
        },
        {
          "internalType": "uint256",
          "name": "_quantity",
          "type": "uint256"
        }
      ],
      "name": "createTender",
      "outputs": [],
      "payable": false,
      "stateMutability": "nonpayable",
      "type": "function"
    },
    {
      "constant": false,
      "inputs": [
        {
          "internalType": "uint256",
          "name": "_tenderId",
          "type": "uint256"
        },
        {
          "internalType": "uint256",
          "name": "_bid",
          "type": "uint256"
        }
      ],
      "name": "createBid",
      "outputs": [],
      "payable": false,
      "stateMutability": "nonpayable",
      "type": "function"
    },
    {
      "constant": true,
      "inputs": [],
      "name": "tenderCounts",
      "outputs": [
        {
          "internalType": "uint256",
          "name": "_counts",
          "type": "uint256"
        }
      ],
      "payable": false,
      "stateMutability": "view",
      "type": "function"
    },
    {
      "constant": true,
      "inputs": [
        {
          "internalType": "uint256",
          "name": "_no",
          "type": "uint256"
        }
      ],
      "name": "tender",
      "outputs": [
        {
          "internalType": "uint256",
          "name": "_id",
          "type": "uint256"
        },
        {
          "internalType": "string",
          "name": "_name",
          "type": "string"
        },
        {
          "internalType": "string",
          "name": "_desc",
          "type": "string"
        },
        {
          "internalType": "uint256",
          "name": "_quantity",
          "type": "uint256"
        }
      ],
      "payable": false,
      "stateMutability": "view",
      "type": "function"
    }
  ],
  "bytecode": "0x60806040526000805560006001556000600255600060035534801561002357600080fd5b5061177a806100336000396000f3fe608060405234801561001057600080fd5b50600436106101005760003560e01c80638adbb5da11610097578063b7751c7111610066578063b7751c71146102e1578063ce6b9801146102fd578063d45fada214610319578063fcc8f7931461033757610100565b80638adbb5da14610244578063907dbc1d146102775780639fa9586314610293578063b40a5627146102c357610100565b806346b1cb5d116100d357806346b1cb5d146101a95780635dc1c9ab146101d957806363968e19146101f557806370d29c111461022657610100565b80631f058776146101055780634423c5f114610123578063442e1b3914610157578063465e1def14610175575b600080fd5b61010d610368565b60405161011a91906114a1565b60405180910390f35b61013d60048036036101389190810190611331565b61036e565b60405161014e9594939291906115a0565b60405180910390f35b61015f61045c565b60405161016c91906114a1565b60405180910390f35b61018f600480360361018a9190810190611331565b610465565b6040516101a095949392919061153f565b60405180910390f35b6101c360048036036101be9190810190611331565b6105eb565b6040516101d09190611466565b60405180910390f35b6101f360048036036101ee9190810190611271565b61061e565b005b61020f600480360361020a9190810190611248565b61089d565b60405161021d9291906114bc565b60405180910390f35b61022e610959565b60405161023b91906114a1565b60405180910390f35b61025e60048036036102599190810190611331565b61095f565b60405161026e94939291906114ec565b60405180910390f35b610291600480360361028c91908101906112b2565b610b07565b005b6102ad60048036036102a89190810190611331565b610c08565b6040516102ba9190611466565b60405180910390f35b6102cb610c3b565b6040516102d891906114a1565b60405180910390f35b6102fb60048036036102f6919081019061135a565b610c41565b005b61031760048036036103129190810190611271565b610de4565b005b610321611063565b60405161032e91906114a1565b60405180910390f35b610351600480360361034c9190810190611248565b611069565b60405161035f9291906114bc565b60405180910390f35b60005481565b6005602052806000526040600020600091509050806000015490806001015490806002018054600181600116156101000203166002900480601f0160208091040260200160405190810160405280929190818152602001828054600181600116156101000203166002900480156104265780601f106103fb57610100808354040283529160200191610426565b820191906000526020600020905b81548152906001019060200180831161040957829003601f168201915b5050505050908060030154908060040160009054906101000a900473ffffffffffffffffffffffffffffffffffffffff16905085565b60008054905090565b6004602052806000526040600020600091509050806000015490806001018054600181600116156101000203166002900480601f0160208091040260200160405190810160405280929190818152602001828054600181600116156101000203166002900480156105175780601f106104ec57610100808354040283529160200191610517565b820191906000526020600020905b8154815290600101906020018083116104fa57829003601f168201915b505050505090806002018054600181600116156101000203166002900480601f0160208091040260200160405190810160405280929190818152602001828054600181600116156101000203166002900480156105b55780601f1061058a576101008083540402835291602001916105b5565b820191906000526020600020905b81548152906001019060200180831161059857829003601f168201915b5050505050908060030154908060040160009054906101000a900473ffffffffffffffffffffffffffffffffffffffff16905085565b60076020528060005260406000206000915054906101000a900473ffffffffffffffffffffffffffffffffffffffff1681565b336000600190505b60025481116106e8578173ffffffffffffffffffffffffffffffffffffffff166006600083815260200190815260200160002060009054906101000a900473ffffffffffffffffffffffffffffffffffffffff1673ffffffffffffffffffffffffffffffffffffffff1614156106db5760026001146106da576040517f08c379a00000000000000000000000000000000000000000000000000000000081526004016106d190611481565b60405180910390fd5b5b8080600101915050610626565b506000600190505b60035481116107b2578173ffffffffffffffffffffffffffffffffffffffff166007600083815260200190815260200160002060009054906101000a900473ffffffffffffffffffffffffffffffffffffffff1673ffffffffffffffffffffffffffffffffffffffff1614156107a55760026001146107a4576040517f08c379a000000000000000000000000000000000000000000000000000000000815260040161079b90611481565b60405180910390fd5b5b80806001019150506106f0565b506002600081548092919060010191905055503360066000600254815260200190815260200160002060006101000a81548173ffffffffffffffffffffffffffffffffffffffff021916908373ffffffffffffffffffffffffffffffffffffffff1602179055506040518060400160405280600254815260200183815250600860003373ffffffffffffffffffffffffffffffffffffffff1673ffffffffffffffffffffffffffffffffffffffff168152602001908152602001600020600082015181600001556020820151816001019080519060200190610895929190611125565b509050505050565b6008602052806000526040600020600091509050806000015490806001018054600181600116156101000203166002900480601f01602080910402602001604051908101604052809291908181526020018280546001816001161561010002031660029004801561094f5780601f106109245761010080835404028352916020019161094f565b820191906000526020600020905b81548152906001019060200180831161093257829003601f168201915b5050505050905082565b60035481565b60006060806000600460008681526020019081526020016000206000015460046000878152602001908152602001600020600101600460008881526020019081526020016000206002016004600089815260200190815260200160002060030154828054600181600116156101000203166002900480601f016020809104026020016040519081016040528092919081815260200182805460018160011615610100020316600290048015610a555780601f10610a2a57610100808354040283529160200191610a55565b820191906000526020600020905b815481529060010190602001808311610a3857829003601f168201915b50505050509250818054600181600116156101000203166002900480601f016020809104026020016040519081016040528092919081815260200182805460018160011615610100020316600290048015610af15780601f10610ac657610100808354040283529160200191610af1565b820191906000526020600020905b815481529060010190602001808311610ad457829003601f168201915b5050505050915093509350935093509193509193565b60008081548092919060010191905055506040518060a0016040528060005481526020018481526020018381526020018281526020013373ffffffffffffffffffffffffffffffffffffffff168152506004600080548152602001908152602001600020600082015181600001556020820151816001019080519060200190610b91929190611125565b506040820151816002019080519060200190610bae929190611125565b506060820151816003015560808201518160040160006101000a81548173ffffffffffffffffffffffffffffffffffffffff021916908373ffffffffffffffffffffffffffffffffffffffff160217905550905050505050565b60066020528060005260406000206000915054906101000a900473ffffffffffffffffffffffffffffffffffffffff1681565b60015481565b6001600081548092919060010191905055506060600460008481526020019081526020016000206001018054600181600116156101000203166002900480601f016020809104026020016040519081016040528092919081815260200182805460018160011615610100020316600290048015610cff5780601f10610cd457610100808354040283529160200191610cff565b820191906000526020600020905b815481529060010190602001808311610ce257829003601f168201915b505050505090506040518060a0016040528060015481526020018481526020018281526020018381526020013373ffffffffffffffffffffffffffffffffffffffff1681525060056000600154815260200190815260200160002060008201518160000155602082015181600101556040820151816002019080519060200190610d8a929190611125565b506060820151816003015560808201518160040160006101000a81548173ffffffffffffffffffffffffffffffffffffffff021916908373ffffffffffffffffffffffffffffffffffffffff160217905550905050505050565b336000600190505b6002548111610eae578173ffffffffffffffffffffffffffffffffffffffff166006600083815260200190815260200160002060009054906101000a900473ffffffffffffffffffffffffffffffffffffffff1673ffffffffffffffffffffffffffffffffffffffff161415610ea1576002600114610ea0576040517f08c379a0000000000000000000000000000000000000000000000000000000008152600401610e9790611481565b60405180910390fd5b5b8080600101915050610dec565b506000600190505b6003548111610f78578173ffffffffffffffffffffffffffffffffffffffff166007600083815260200190815260200160002060009054906101000a900473ffffffffffffffffffffffffffffffffffffffff1673ffffffffffffffffffffffffffffffffffffffff161415610f6b576002600114610f6a576040517f08c379a0000000000000000000000000000000000000000000000000000000008152600401610f6190611481565b60405180910390fd5b5b8080600101915050610eb6565b506003600081548092919060010191905055503360076000600354815260200190815260200160002060006101000a81548173ffffffffffffffffffffffffffffffffffffffff021916908373ffffffffffffffffffffffffffffffffffffffff1602179055506040518060400160405280600354815260200183815250600960003373ffffffffffffffffffffffffffffffffffffffff1673ffffffffffffffffffffffffffffffffffffffff16815260200190815260200160002060008201518160000155602082015181600101908051906020019061105b929190611125565b509050505050565b60025481565b6009602052806000526040600020600091509050806000015490806001018054600181600116156101000203166002900480601f01602080910402602001604051908101604052809291908181526020018280546001816001161561010002031660029004801561111b5780601f106110f05761010080835404028352916020019161111b565b820191906000526020600020905b8154815290600101906020018083116110fe57829003601f168201915b5050505050905082565b828054600181600116156101000203166002900490600052602060002090601f016020900481019282601f1061116657805160ff1916838001178555611194565b82800160010185558215611194579182015b82811115611193578251825591602001919060010190611178565b5b5090506111a191906111a5565b5090565b6111c791905b808211156111c35760008160009055506001016111ab565b5090565b90565b6000813590506111d981611709565b92915050565b600082601f8301126111f057600080fd5b81356112036111fe82611627565b6115fa565b9150808252602083016020830185838301111561121f57600080fd5b61122a8382846116b6565b50505092915050565b60008135905061124281611720565b92915050565b60006020828403121561125a57600080fd5b6000611268848285016111ca565b91505092915050565b60006020828403121561128357600080fd5b600082013567ffffffffffffffff81111561129d57600080fd5b6112a9848285016111df565b91505092915050565b6000806000606084860312156112c757600080fd5b600084013567ffffffffffffffff8111156112e157600080fd5b6112ed868287016111df565b935050602084013567ffffffffffffffff81111561130a57600080fd5b611316868287016111df565b925050604061132786828701611233565b9150509250925092565b60006020828403121561134357600080fd5b600061135184828501611233565b91505092915050565b6000806040838503121561136d57600080fd5b600061137b85828601611233565b925050602061138c85828601611233565b9150509250929050565b61139f8161167a565b82525050565b60006113b08261165e565b6113ba8185611669565b93506113ca8185602086016116c5565b6113d3816116f8565b840191505092915050565b60006113e982611653565b6113f38185611669565b93506114038185602086016116c5565b61140c816116f8565b840191505092915050565b6000611424601783611669565b91507f4164647265737320616c72656164792070726573656e740000000000000000006000830152602082019050919050565b611460816116ac565b82525050565b600060208201905061147b6000830184611396565b92915050565b6000602082019050818103600083015261149a81611417565b9050919050565b60006020820190506114b66000830184611457565b92915050565b60006040820190506114d16000830185611457565b81810360208301526114e381846113de565b90509392505050565b60006080820190506115016000830187611457565b818103602083015261151381866113a5565b9050818103604083015261152781856113a5565b90506115366060830184611457565b95945050505050565b600060a0820190506115546000830188611457565b818103602083015261156681876113de565b9050818103604083015261157a81866113de565b90506115896060830185611457565b6115966080830184611396565b9695505050505050565b600060a0820190506115b56000830188611457565b6115c26020830187611457565b81810360408301526115d481866113de565b90506115e36060830185611457565b6115f06080830184611396565b9695505050505050565b6000604051905081810181811067ffffffffffffffff8211171561161d57600080fd5b8060405250919050565b600067ffffffffffffffff82111561163e57600080fd5b601f19601f8301169050602081019050919050565b600081519050919050565b600081519050919050565b600082825260208201905092915050565b60006116858261168c565b9050919050565b600073ffffffffffffffffffffffffffffffffffffffff82169050919050565b6000819050919050565b82818337600083830152505050565b60005b838110156116e35780820151818401526020810190506116c8565b838111156116f2576000848401525b50505050565b6000601f19601f8301169050919050565b6117128161167a565b811461171d57600080fd5b50565b611729816116ac565b811461173457600080fd5b5056fea365627a7a72315820938a197f899e10e569ffc225face0401033e5cc21dd9bc5ed4e1900e547e76db6c6578706572696d656e74616cf564736f6c63430005100040",
  "source": "pragma solidity >=0.4.21 <0.6.0;\npragma experimental ABIEncoderV2;\n\ncontract TenderAuction {\n    uint public tenderCount = 0;\n    uint public bidCount = 0;\n    uint public uploaderCount = 0;\n    uint public bidderCount = 0;\n\n    struct Uploader {\n        uint id;\n        string username;\n    }\n\n    struct Bidder {\n        uint id;\n        string username;\n    }\n\n    struct Bid {\n        uint id;\n        uint tenderId;\n        string tenderTitle;\n        uint bid;\n        address userHash;\n    }\n\n    struct Tender {\n        uint id;\n        string itemName;\n        string itemDescription;\n        uint quantity;\n        address userHash;\n    }\n\n    mapping (uint => Tender) public tenders;\n    mapping (uint => Bid) public bids;\n    mapping (uint => address) public whoIsUploader;\n    mapping (uint => address) public whoIsBidder;\n    mapping (address => Uploader) public uploaders;\n    mapping (address => Bidder) public bidders;\n\n    // modifier isUploader(address _userHash) {\n    //     require(uploaders[_userHash]);\n    //     _;\n    // }\n\n    // modifier isBidder(address _userHash) {\n    //     require(bidders[_userHash]);\n    //     _;\n    // }\n\n    modifier alreadyPresent(address _address) {\n        for(uint i = 1; i <= uploaderCount; i++) {\n            if(whoIsUploader[i] == _address) {\n                require(1 == 2, \"Address already present\");\n            }\n        }\n\n        for(uint i = 1; i <= bidderCount; i++) {\n            if(whoIsBidder[i] == _address) {\n                require(1 == 2, \"Address already present\");\n            }\n        }\n        _;\n    }\n\n    function createUploader(string memory _username) public alreadyPresent(msg.sender) {\n        uploaderCount++;\n        whoIsUploader[uploaderCount] = msg.sender;\n        uploaders[msg.sender] = Uploader(uploaderCount, _username);\n    }\n\n    function createBidder(string memory _username) public alreadyPresent(msg.sender) {\n        bidderCount++;\n        whoIsBidder[bidderCount] = msg.sender;\n        bidders[msg.sender] = Bidder(bidderCount, _username);\n    }\n\n    function createTender(string memory _itemName, string memory _itemDescription, uint _quantity) public {\n        tenderCount++;\n        tenders[tenderCount] = Tender(tenderCount, _itemName, _itemDescription, _quantity, msg.sender);\n    }\n\n    function createBid(uint _tenderId, uint _bid) public {\n        bidCount++;\n        string memory tenderName = tenders[_tenderId].itemName;\n        bids[bidCount] = Bid(bidCount, _tenderId, tenderName, _bid, msg.sender);\n    }\n\n    function  tenderCounts()public view returns(uint _counts) {\n\n        return tenderCount;\n        \n    }\n\n\n    function tender(uint _no) public view returns(uint _id,string memory _name,string memory _desc,uint _quantity) {\n\n        return(tenders[_no].id,tenders[_no].itemName,tenders[_no].itemDescription,tenders[_no].quantity);\n\n    }\n}",
  "sourcePath": "/home/godlove/Desktop/e-tendering/contracts/Tender.sol",
  "compiler": {
    "name": "solc",
    "version": "0.5.16+commit.9c3226ce.Emscripten.clang"
  },
  "schemaVersion": "3.4.3",
  "updatedAt": "2021-11-08T14:37:44.987Z",
  "networkType": "ethereum",
  "devdoc": {
    "methods": {}
  },
  "userdoc": {
    "methods": {}
  }
}